{
  "contractName": "SimpleTrade",
  "abi": [
    {
      "inputs": [
        {
          "internalType": "address",
          "name": "",
          "type": "address"
        }
      ],
      "name": "customerDetails",
      "outputs": [
        {
          "internalType": "string",
          "name": "name",
          "type": "string"
        },
        {
          "internalType": "string",
          "name": "addr",
          "type": "string"
        },
        {
          "internalType": "string",
          "name": "email",
          "type": "string"
        }
      ],
      "stateMutability": "view",
      "type": "function",
      "constant": true
    },
    {
      "inputs": [
        {
          "internalType": "address",
          "name": "",
          "type": "address"
        }
      ],
      "name": "customers",
      "outputs": [
        {
          "internalType": "bool",
          "name": "",
          "type": "bool"
        }
      ],
      "stateMutability": "view",
      "type": "function",
      "constant": true
    },
    {
      "inputs": [],
      "name": "owner",
      "outputs": [
        {
          "internalType": "address",
          "name": "",
          "type": "address"
        }
      ],
      "stateMutability": "view",
      "type": "function",
      "constant": true
    },
    {
      "inputs": [
        {
          "internalType": "address",
          "name": "",
          "type": "address"
        },
        {
          "internalType": "uint256",
          "name": "",
          "type": "uint256"
        }
      ],
      "name": "transactions",
      "outputs": [
        {
          "internalType": "string",
          "name": "title",
          "type": "string"
        },
        {
          "internalType": "string",
          "name": "price",
          "type": "string"
        },
        {
          "internalType": "string",
          "name": "date",
          "type": "string"
        }
      ],
      "stateMutability": "view",
      "type": "function",
      "constant": true
    },
    {
      "inputs": [
        {
          "internalType": "string",
          "name": "title",
          "type": "string"
        },
        {
          "internalType": "string",
          "name": "price",
          "type": "string"
        },
        {
          "internalType": "string",
          "name": "date",
          "type": "string"
        },
        {
          "internalType": "string",
          "name": "name",
          "type": "string"
        },
        {
          "internalType": "string",
          "name": "addr",
          "type": "string"
        },
        {
          "internalType": "string",
          "name": "email",
          "type": "string"
        }
      ],
      "name": "addTransaction",
      "outputs": [],
      "stateMutability": "payable",
      "type": "function",
      "payable": true
    },
    {
      "inputs": [
        {
          "internalType": "address",
          "name": "customer",
          "type": "address"
        }
      ],
      "name": "getTransactions",
      "outputs": [
        {
          "components": [
            {
              "internalType": "string",
              "name": "title",
              "type": "string"
            },
            {
              "internalType": "string",
              "name": "price",
              "type": "string"
            },
            {
              "internalType": "string",
              "name": "date",
              "type": "string"
            }
          ],
          "internalType": "struct SimpleTrade.Transaction[]",
          "name": "",
          "type": "tuple[]"
        }
      ],
      "stateMutability": "view",
      "type": "function",
      "constant": true
    },
    {
      "inputs": [
        {
          "internalType": "address",
          "name": "customer",
          "type": "address"
        }
      ],
      "name": "getCustomer",
      "outputs": [
        {
          "components": [
            {
              "internalType": "string",
              "name": "name",
              "type": "string"
            },
            {
              "internalType": "string",
              "name": "addr",
              "type": "string"
            },
            {
              "internalType": "string",
              "name": "email",
              "type": "string"
            }
          ],
          "internalType": "struct SimpleTrade.Customer",
          "name": "",
          "type": "tuple"
        }
      ],
      "stateMutability": "view",
      "type": "function",
      "constant": true
    },
    {
      "inputs": [
        {
          "internalType": "uint256",
          "name": "withdrawAmount",
          "type": "uint256"
        }
      ],
      "name": "withdraw",
      "outputs": [],
      "stateMutability": "nonpayable",
      "type": "function"
    }
  ],
  "bytecode": "0x608060405234801561001057600080fd5b50336000806101000a81548173ffffffffffffffffffffffffffffffffffffffff021916908373ffffffffffffffffffffffffffffffffffffffff160217905550611832806100606000396000f3fe60806040526004361061007b5760003560e01c80638da5cb5b1161004e5780638da5cb5b14610162578063b031db1c1461018d578063cb949e51146101cc578063f3e79008146102095761007b565b80630f8cda201461008057806314538128146100bd5780632e1a7d4d146100fc578063336989ae14610125575b600080fd5b34801561008c57600080fd5b506100a760048036038101906100a29190611050565b610225565b6040516100b4919061142d565b60405180910390f35b3480156100c957600080fd5b506100e460048036038101906100df9190611079565b610479565b6040516100f39392919061146a565b60405180910390f35b34801561010857600080fd5b50610123600480360381019061011e91906111ce565b610658565b005b34801561013157600080fd5b5061014c60048036038101906101479190611050565b610773565b604051610159919061144f565b60405180910390f35b34801561016e57600080fd5b50610177610793565b6040516101849190611412565b60405180910390f35b34801561019957600080fd5b506101b460048036038101906101af9190611050565b6107b7565b6040516101c39392919061146a565b60405180910390f35b3480156101d857600080fd5b506101f360048036038101906101ee9190611050565b610979565b60405161020091906114f6565b60405180910390f35b610223600480360381019061021e91906110b5565b610b88565b005b6060600260008373ffffffffffffffffffffffffffffffffffffffff1673ffffffffffffffffffffffffffffffffffffffff168152602001908152602001600020805480602002602001604051908101604052809291908181526020016000905b8282101561046e57838290600052602060002090600302016040518060600160405290816000820180546102b99061165e565b80601f01602080910402602001604051908101604052809291908181526020018280546102e59061165e565b80156103325780601f1061030757610100808354040283529160200191610332565b820191906000526020600020905b81548152906001019060200180831161031557829003601f168201915b5050505050815260200160018201805461034b9061165e565b80601f01602080910402602001604051908101604052809291908181526020018280546103779061165e565b80156103c45780601f10610399576101008083540402835291602001916103c4565b820191906000526020600020905b8154815290600101906020018083116103a757829003601f168201915b505050505081526020016002820180546103dd9061165e565b80601f01602080910402602001604051908101604052809291908181526020018280546104099061165e565b80156104565780601f1061042b57610100808354040283529160200191610456565b820191906000526020600020905b81548152906001019060200180831161043957829003601f168201915b50505050508152505081526020019060010190610286565b505050509050919050565b6002602052816000526040600020818154811061049557600080fd5b9060005260206000209060030201600091509150508060000180546104b99061165e565b80601f01602080910402602001604051908101604052809291908181526020018280546104e59061165e565b80156105325780601f1061050757610100808354040283529160200191610532565b820191906000526020600020905b81548152906001019060200180831161051557829003601f168201915b5050505050908060010180546105479061165e565b80601f01602080910402602001604051908101604052809291908181526020018280546105739061165e565b80156105c05780601f10610595576101008083540402835291602001916105c0565b820191906000526020600020905b8154815290600101906020018083116105a357829003601f168201915b5050505050908060020180546105d59061165e565b80601f01602080910402602001604051908101604052809291908181526020018280546106019061165e565b801561064e5780601f106106235761010080835404028352916020019161064e565b820191906000526020600020905b81548152906001019060200180831161063157829003601f168201915b5050505050905083565b60008054906101000a900473ffffffffffffffffffffffffffffffffffffffff1673ffffffffffffffffffffffffffffffffffffffff163373ffffffffffffffffffffffffffffffffffffffff16146106e6576040517f08c379a00000000000000000000000000000000000000000000000000000000081526004016106dd906114b6565b60405180910390fd5b47811115610729576040517f08c379a0000000000000000000000000000000000000000000000000000000008152600401610720906114d6565b60405180910390fd5b3373ffffffffffffffffffffffffffffffffffffffff166108fc829081150290604051600060405180830381858888f1935050505015801561076f573d6000803e3d6000fd5b5050565b60016020528060005260406000206000915054906101000a900460ff1681565b60008054906101000a900473ffffffffffffffffffffffffffffffffffffffff1681565b60036020528060005260406000206000915090508060000180546107da9061165e565b80601f01602080910402602001604051908101604052809291908181526020018280546108069061165e565b80156108535780601f1061082857610100808354040283529160200191610853565b820191906000526020600020905b81548152906001019060200180831161083657829003601f168201915b5050505050908060010180546108689061165e565b80601f01602080910402602001604051908101604052809291908181526020018280546108949061165e565b80156108e15780601f106108b6576101008083540402835291602001916108e1565b820191906000526020600020905b8154815290600101906020018083116108c457829003601f168201915b5050505050908060020180546108f69061165e565b80601f01602080910402602001604051908101604052809291908181526020018280546109229061165e565b801561096f5780601f106109445761010080835404028352916020019161096f565b820191906000526020600020905b81548152906001019060200180831161095257829003601f168201915b5050505050905083565b610981610efa565b600360008373ffffffffffffffffffffffffffffffffffffffff1673ffffffffffffffffffffffffffffffffffffffff1681526020019081526020016000206040518060600160405290816000820180546109db9061165e565b80601f0160208091040260200160405190810160405280929190818152602001828054610a079061165e565b8015610a545780601f10610a2957610100808354040283529160200191610a54565b820191906000526020600020905b815481529060010190602001808311610a3757829003601f168201915b50505050508152602001600182018054610a6d9061165e565b80601f0160208091040260200160405190810160405280929190818152602001828054610a999061165e565b8015610ae65780601f10610abb57610100808354040283529160200191610ae6565b820191906000526020600020905b815481529060010190602001808311610ac957829003601f168201915b50505050508152602001600282018054610aff9061165e565b80601f0160208091040260200160405190810160405280929190818152602001828054610b2b9061165e565b8015610b785780601f10610b4d57610100808354040283529160200191610b78565b820191906000526020600020905b815481529060010190602001808311610b5b57829003601f168201915b5050505050815250509050919050565b6000339050600160008273ffffffffffffffffffffffffffffffffffffffff1673ffffffffffffffffffffffffffffffffffffffff16815260200190815260200160002060009054906101000a900460ff16610cee5760018060008373ffffffffffffffffffffffffffffffffffffffff1673ffffffffffffffffffffffffffffffffffffffff16815260200190815260200160002060006101000a81548160ff021916908315150217905550604051806060016040528085815260200184815260200183815250600360008373ffffffffffffffffffffffffffffffffffffffff1673ffffffffffffffffffffffffffffffffffffffff1681526020019081526020016000206000820151816000019080519060200190610cab929190610f1b565b506020820151816001019080519060200190610cc8929190610f1b565b506040820151816002019080519060200190610ce5929190610f1b565b50905050610e15565b600184511115610d505783600360008373ffffffffffffffffffffffffffffffffffffffff1673ffffffffffffffffffffffffffffffffffffffff1681526020019081526020016000206000019080519060200190610d4e929190610f1b565b505b600c83511115610db25782600360008373ffffffffffffffffffffffffffffffffffffffff1673ffffffffffffffffffffffffffffffffffffffff1681526020019081526020016000206001019080519060200190610db0929190610f1b565b505b600082511115610e145781600360008373ffffffffffffffffffffffffffffffffffffffff1673ffffffffffffffffffffffffffffffffffffffff1681526020019081526020016000206002019080519060200190610e12929190610f1b565b505b5b600260008273ffffffffffffffffffffffffffffffffffffffff1673ffffffffffffffffffffffffffffffffffffffff16815260200190815260200160002060405180606001604052808981526020018881526020018781525090806001815401808255809150506001900390600052602060002090600302016000909190919091506000820151816000019080519060200190610eb4929190610f1b565b506020820151816001019080519060200190610ed1929190610f1b565b506040820151816002019080519060200190610eee929190610f1b565b50505050505050505050565b60405180606001604052806060815260200160608152602001606081525090565b828054610f279061165e565b90600052602060002090601f016020900481019282610f495760008555610f90565b82601f10610f6257805160ff1916838001178555610f90565b82800160010185558215610f90579182015b82811115610f8f578251825591602001919060010190610f74565b5b509050610f9d9190610fa1565b5090565b5b80821115610fba576000816000905550600101610fa2565b5090565b6000610fd1610fcc8461153d565b611518565b905082815260208101848484011115610fe957600080fd5b610ff484828561161c565b509392505050565b60008135905061100b816117ce565b92915050565b600082601f83011261102257600080fd5b8135611032848260208601610fbe565b91505092915050565b60008135905061104a816117e5565b92915050565b60006020828403121561106257600080fd5b600061107084828501610ffc565b91505092915050565b6000806040838503121561108c57600080fd5b600061109a85828601610ffc565b92505060206110ab8582860161103b565b9150509250929050565b60008060008060008060c087890312156110ce57600080fd5b600087013567ffffffffffffffff8111156110e857600080fd5b6110f489828a01611011565b965050602087013567ffffffffffffffff81111561111157600080fd5b61111d89828a01611011565b955050604087013567ffffffffffffffff81111561113a57600080fd5b61114689828a01611011565b945050606087013567ffffffffffffffff81111561116357600080fd5b61116f89828a01611011565b935050608087013567ffffffffffffffff81111561118c57600080fd5b61119889828a01611011565b92505060a087013567ffffffffffffffff8111156111b557600080fd5b6111c189828a01611011565b9150509295509295509295565b6000602082840312156111e057600080fd5b60006111ee8482850161103b565b91505092915050565b600061120383836113b4565b905092915050565b611214816115d4565b82525050565b60006112258261157e565b61122f81856115a1565b9350836020820285016112418561156e565b8060005b8581101561127d578484038952815161125e85826111f7565b945061126983611594565b925060208a01995050600181019050611245565b50829750879550505050505092915050565b611298816115e6565b82525050565b60006112a982611589565b6112b381856115b2565b93506112c381856020860161162b565b6112cc8161171f565b840191505092915050565b60006112e282611589565b6112ec81856115c3565b93506112fc81856020860161162b565b6113058161171f565b840191505092915050565b600061131d6022836115c3565b915061132882611730565b604082019050919050565b60006113406026836115c3565b915061134b8261177f565b604082019050919050565b60006060830160008301518482036000860152611373828261129e565b9150506020830151848203602086015261138d828261129e565b915050604083015184820360408601526113a7828261129e565b9150508091505092915050565b600060608301600083015184820360008601526113d1828261129e565b915050602083015184820360208601526113eb828261129e565b91505060408301518482036040860152611405828261129e565b9150508091505092915050565b6000602082019050611427600083018461120b565b92915050565b60006020820190508181036000830152611447818461121a565b905092915050565b6000602082019050611464600083018461128f565b92915050565b6000606082019050818103600083015261148481866112d7565b9050818103602083015261149881856112d7565b905081810360408301526114ac81846112d7565b9050949350505050565b600060208201905081810360008301526114cf81611310565b9050919050565b600060208201905081810360008301526114ef81611333565b9050919050565b600060208201905081810360008301526115108184611356565b905092915050565b6000611522611533565b905061152e8282611690565b919050565b6000604051905090565b600067ffffffffffffffff821115611558576115576116f0565b5b6115618261171f565b9050602081019050919050565b6000819050602082019050919050565b600081519050919050565b600081519050919050565b6000602082019050919050565b600082825260208201905092915050565b600082825260208201905092915050565b600082825260208201905092915050565b60006115df826115f2565b9050919050565b60008115159050919050565b600073ffffffffffffffffffffffffffffffffffffffff82169050919050565b6000819050919050565b82818337600083830152505050565b60005b8381101561164957808201518184015260208101905061162e565b83811115611658576000848401525b50505050565b6000600282049050600182168061167657607f821691505b6020821081141561168a576116896116c1565b5b50919050565b6116998261171f565b810181811067ffffffffffffffff821117156116b8576116b76116f0565b5b80604052505050565b7f4e487b7100000000000000000000000000000000000000000000000000000000600052602260045260246000fd5b7f4e487b7100000000000000000000000000000000000000000000000000000000600052604160045260246000fd5b6000601f19601f8301169050919050565b7f4f6e6c79206f776e65722063616e2063616c6c20746869732066756e6374696f60008201527f6e2e000000000000000000000000000000000000000000000000000000000000602082015250565b7f496e73756666696369656e742062616c616e636520696e20536d61727420436f60008201527f6e74726163740000000000000000000000000000000000000000000000000000602082015250565b6117d7816115d4565b81146117e257600080fd5b50565b6117ee81611612565b81146117f957600080fd5b5056fea2646970667358221220a1b94f2f4d2896ce8a8d16f88b2117c164591c9235b591830a454e4e4f3d7fa464736f6c63430008040033",
  "immutableReferences": {},
  "source": "// SPDX-License-Identifier: MIT\r\npragma solidity >=0.4.22 <0.9.0;\r\n\r\nimport \"./Owned.sol\";\r\n\r\ncontract SimpleTrade is Owned {\r\n    \r\n    struct Transaction {\r\n        string title;\r\n        string price;\r\n        string date;\r\n    }\r\n        struct Customer {\r\n        string name;\r\n        string addr;\r\n        string email;\r\n    }\r\n\r\n    mapping(address => bool) public customers;\r\n    mapping(address => Transaction[]) public transactions;\r\n    mapping(address => Customer) public customerDetails;\r\n\r\n\r\n\r\n    function addTransaction(string memory title, string memory price, string memory date, string memory name, string memory addr, string memory email) external payable{\r\n    address customer = msg.sender;\r\n      \r\n    if (!customers[customer]) {          \r\n        customers[customer] = true;\r\n        customerDetails[customer] = Customer(name, addr, email);            \r\n    }\r\n    else {\r\n        if (bytes(name).length > 1){customerDetails[customer].name = name;}\r\n        if (bytes(addr).length > 12) {customerDetails[customer].addr = addr;}\r\n        if (bytes(email).length > 0) {customerDetails[customer].email = email;}\r\n    }\r\n    transactions[customer].push (Transaction(title, price, date));      \r\n    }\r\n   \r\n    function getTransactions(address customer) external view returns (Transaction[] memory) {\r\n        return transactions[customer];\r\n    }\r\n\r\n    function getCustomer(address customer) external view returns (Customer memory) {\r\n        return customerDetails[customer];\r\n    }\r\n\r\n    function withdraw(uint withdrawAmount) external onlyOwner(){\r\n        require(\r\n            withdrawAmount <= address(this).balance,\r\n            \"Insufficient balance in Smart Contract\"\r\n        );\r\n        payable(msg.sender).transfer(withdrawAmount);\r\n    }\r\n} \r\n",
  "sourcePath": "C:\\Users\\Jez\\GitHub\\COS30049\\cos30049-project\\contracts\\SmartContract.sol",
  "compiler": {
    "name": "solc",
    "version": "0.8.4+commit.c7e474f2.Emscripten.clang"
  },
  "schemaVersion": "3.4.16",
  "updatedAt": "2023-10-09T07:14:25.160Z",
  "networkType": "ethereum",
  "devdoc": {
    "kind": "dev",
    "methods": {},
    "version": 1
  },
  "userdoc": {
    "kind": "user",
    "methods": {},
    "version": 1
  }
}